:02000000FC28DA
:10000800FF00030E8301A8000A08A7008A017008F0
:10001800A0008B1C16288B10A30A2408003C031888
:100028001628A3032008F00027088A00280E83005A
:06003800FF0E7F0E09001F
:10003E0083120313F8010830FC00700DF80D7408DC
:10004E00F80203182C28F8070310F00DFC0B2428D7
:02005E00080098
:10006000831203130808A100051AC328861006117D
:100070002308003A031D3F28880108148816230826
:10008000013A031D79288801081408160330A400DA
:100090002408003C03187828861406150A30F4005A
:1000A0002408F0001F207808F0007008AB000A3028
:1000B000F4002408F0001F207008F100F10D711009
:1000C000F10D7110F10D7110F10D711071082B0708
:1000D00087000230FB000430FC00BA30FD00FD0B4D
:1000E0006F28FC0B6F28FB0B6F280000A403482827
:1000F000A30A2308023A031D8028880188150815E1
:100100002308033A031DBA28880188148815033090
:10011000A4002408003C0318B928861406150A30E8
:10012000F4002408F0001F207808F0007008AB00ED
:100130000A30F4002408F0001F207008F100F10DCF
:100140007110F10D7110F10D7110F10D7110710838
:100150002B0787000230FB000430FC00BA30FD00A2
:10016000FD0BB028FC0BB028FB0BB0280000A4034B
:100170008928A30A2308043A031DC2288801081409
:0C0180008816A30134282108880008001C
:0E018C008312031326088A002508820008004B
:10019A0083120313861406150A30F4002908F000A6
:1001AA001F207808F0007008AA000A30F400290815
:1001BA00F0001F207008F100F10D7110F10D71109F
:1001CA00F10D7110F10D711071082A078700051AD7
:0601DA00EF2830200800B0
:1001E000C6208A110A128000840AA50A0319A60AE9
:0801F000F003031DF0280800D4
:1001F80083120313A101A201FF30A300A401073059
:1002080083169F00051687018312870183168601CE
:1002180083128601831688018312880183160614C7
:100228008B170B16811301178312081488160F30C9
:10023800A2002208003C031839292208033A031DAA
:100248002729881208162208A900CD200230FB00B1
:100258000430FC00BA30FD00FD0B3029FC0B3029BE
:10026800FB0B30290000A2031D29081008150812ED
:1002780088151730A2002208003C03185B292208C1
:10028800033A031D4929081188142208A900CD2022
:100298000230FB000430FC00BA30FD00FD0B52298F
:1002A800FC0B5229FB0B52290000A2033F2988109E
:0802B8008812881118295F2942
:02400E004A2F37
:00000001FF
